{
  "_format": "hh-sol-artifact-1",
  "contractName": "Zamamind",
  "sourceName": "contracts/Zamamind.sol",
  "abi": [
    {
      "inputs": [],
      "name": "HandlesAlreadySavedForRequestID",
      "type": "error"
    },
    {
      "inputs": [],
      "name": "InvalidKMSSignatures",
      "type": "error"
    },
    {
      "inputs": [],
      "name": "NoHandleFoundForRequestID",
      "type": "error"
    },
    {
      "inputs": [],
      "name": "UnsupportedHandleType",
      "type": "error"
    },
    {
      "anonymous": false,
      "inputs": [
        {
          "indexed": true,
          "internalType": "uint256",
          "name": "requestID",
          "type": "uint256"
        }
      ],
      "name": "DecryptionFulfilled",
      "type": "event"
    },
    {
      "inputs": [
        {
          "internalType": "externalEuint16",
          "name": "combinaison",
          "type": "bytes32"
        },
        {
          "internalType": "bytes",
          "name": "input",
          "type": "bytes"
        }
      ],
      "name": "claim",
      "outputs": [],
      "stateMutability": "nonpayable",
      "type": "function"
    },
    {
      "inputs": [
        {
          "internalType": "address",
          "name": "",
          "type": "address"
        }
      ],
      "name": "counter",
      "outputs": [
        {
          "internalType": "uint256",
          "name": "",
          "type": "uint256"
        }
      ],
      "stateMutability": "view",
      "type": "function"
    },
    {
      "inputs": [
        {
          "internalType": "address",
          "name": "",
          "type": "address"
        }
      ],
      "name": "currentGames",
      "outputs": [
        {
          "internalType": "euint16",
          "name": "game",
          "type": "bytes32"
        }
      ],
      "stateMutability": "view",
      "type": "function"
    },
    {
      "inputs": [
        {
          "internalType": "address",
          "name": "",
          "type": "address"
        }
      ],
      "name": "gameResults",
      "outputs": [
        {
          "internalType": "euint8",
          "name": "",
          "type": "bytes32"
        }
      ],
      "stateMutability": "view",
      "type": "function"
    },
    {
      "inputs": [],
      "name": "gameStarted",
      "outputs": [
        {
          "internalType": "bool",
          "name": "",
          "type": "bool"
        }
      ],
      "stateMutability": "view",
      "type": "function"
    },
    {
      "inputs": [],
      "name": "getGame",
      "outputs": [
        {
          "internalType": "euint16",
          "name": "",
          "type": "bytes32"
        }
      ],
      "stateMutability": "view",
      "type": "function"
    },
    {
      "inputs": [
        {
          "internalType": "address",
          "name": "user",
          "type": "address"
        }
      ],
      "name": "getScore",
      "outputs": [
        {
          "internalType": "uint256",
          "name": "",
          "type": "uint256"
        }
      ],
      "stateMutability": "view",
      "type": "function"
    },
    {
      "inputs": [],
      "name": "getTop",
      "outputs": [
        {
          "internalType": "address[10]",
          "name": "",
          "type": "address[10]"
        }
      ],
      "stateMutability": "view",
      "type": "function"
    },
    {
      "inputs": [
        {
          "internalType": "externalEuint16",
          "name": "combinaison",
          "type": "bytes32"
        },
        {
          "internalType": "bytes",
          "name": "input",
          "type": "bytes"
        }
      ],
      "name": "play",
      "outputs": [],
      "stateMutability": "nonpayable",
      "type": "function"
    },
    {
      "inputs": [
        {
          "internalType": "uint256",
          "name": "",
          "type": "uint256"
        }
      ],
      "name": "requests",
      "outputs": [
        {
          "internalType": "address",
          "name": "",
          "type": "address"
        }
      ],
      "stateMutability": "view",
      "type": "function"
    },
    {
      "inputs": [
        {
          "internalType": "address",
          "name": "",
          "type": "address"
        }
      ],
      "name": "scores",
      "outputs": [
        {
          "internalType": "uint256",
          "name": "",
          "type": "uint256"
        }
      ],
      "stateMutability": "view",
      "type": "function"
    },
    {
      "inputs": [],
      "name": "start",
      "outputs": [],
      "stateMutability": "nonpayable",
      "type": "function"
    },
    {
      "inputs": [
        {
          "internalType": "uint256",
          "name": "",
          "type": "uint256"
        }
      ],
      "name": "top",
      "outputs": [
        {
          "internalType": "address",
          "name": "",
          "type": "address"
        }
      ],
      "stateMutability": "view",
      "type": "function"
    },
    {
      "inputs": [
        {
          "internalType": "uint256",
          "name": "requestId",
          "type": "uint256"
        },
        {
          "internalType": "bool",
          "name": "victory",
          "type": "bool"
        },
        {
          "internalType": "bytes[]",
          "name": "signatures",
          "type": "bytes[]"
        }
      ],
      "name": "verifyVictory",
      "outputs": [],
      "stateMutability": "nonpayable",
      "type": "function"
    }
  ],
  "bytecode": "0x608060405234801561000f575f80fd5b5061018a6100ae604080516080810182525f808252602082018190529181018290526060810191909152506040805160808101825273687820221192c5b662b25367f70076a37bc79b6c815273848b0066793bcc60346da1f49049357399b8d5956020820152731364cbbf2cdf5032c47d8226a6f6fbd2afcdacac9181019190915273bc91f3dad1a5f19f8390c400196e58073b6a0bc4606082015290565b80517fed8d60e34876f751cc8b014c560745351147d9de11b9347c854e881b128ea60080546001600160a01b03199081166001600160a01b039384161790915560208301517fed8d60e34876f751cc8b014c560745351147d9de11b9347c854e881b128ea6018054831691841691909117905560408301517fed8d60e34876f751cc8b014c560745351147d9de11b9347c854e881b128ea6028054831691841691909117905560608301517fed8d60e34876f751cc8b014c560745351147d9de11b9347c854e881b128ea6038054909216921691909117905550565b7f5ea69329017273582817d320489fbd94f775580e90c092699ca6f3d12fdf7d0080546001600160a01b03191673a02cda4ca3a71d7c46997716f4283aa851c28812179055611f74806101dc5f395ff3fe608060405234801561000f575f80fd5b50600436106100e5575f3560e01c80638fbe1e0511610088578063c12327b811610063578063c12327b814610213578063c9eeb1a614610232578063d47875d014610245578063f03310241461026d575f80fd5b80638fbe1e05146101d7578063a5019f8f146101ec578063be9a65551461020b575f80fd5b80635c2b1119116100c35780635c2b11191461015a5780635e123ce41461016f57806376dd110f1461019057806381d12c58146101af575f80fd5b80631d75d7c2146100e9578063313ae5411461011b5780634494fd9f14610146575b5f80fd5b6101086100f73660046119e6565b60026020525f908152604090205481565b6040519081526020015b60405180910390f35b61012e610129366004611a0c565b610280565b6040516001600160a01b039091168152602001610112565b335f90815260016020526040902054610108565b61016261029f565b6040516101129190611a23565b335f9081526001602052604090205415156040519015158152602001610112565b61010861019e3660046119e6565b60046020525f908152604090205481565b61012e6101bd366004611a0c565b5f602081905290815260409020546001600160a01b031681565b6101ea6101e5366004611a5d565b6102ea565b005b6101086101fa3660046119e6565b60016020525f908152604090205481565b6101ea61054a565b6101086102213660046119e6565b60036020525f908152604090205481565b6101ea610240366004611b24565b610745565b6101086102533660046119e6565b6001600160a01b03165f9081526004602052604090205490565b6101ea61027b366004611a5d565b610876565b600581600a811061028f575f80fd5b01546001600160a01b0316905081565b6102a7611910565b6040805161014081019182905290600590600a9082845b81546001600160a01b031681526001909101906020018083116102be575050505050905090565b905090565b335f9081526001602052604090205461034a5760405162461bcd60e51b815260206004820152600760248201527f4e6f2067616d650000000000000000000000000000000000000000000000000060448201526064015b60405180910390fd5b335f908152600360205260408120805460019290610369908490611c60565b9091555050335f9081526001602090815260408083208151601f860184900484028101840190925284825292916103bb91879187908790819084018382808284375f9201919091525061095792505050565b90505f6103c75f61096d565b90505f5b60048160ff16101561050e575f61041161040a5f8460ff16116103ef57865461099d565b865461040590610400600387611c73565b61097c565b61099d565b60076109a9565b90505f61043961040a5f8560ff161161042a578661099d565b61040587610400600388611c73565b90505f6104455f6109ca565b90505f5b600860ff821610156104a6576104928261048d61046e866104698661096d565b6109e5565b8b6001018560ff166008811061048657610486611c96565b0154610a13565b610a41565b915061049f600182611caa565b9050610449565b505f6104db6104b585856109e5565b6104bf600161096d565b6104d6856104cd600261096d565b6104d65f61096d565b610a6f565b90506104e8866002610a85565b95506104f48682610aa6565b9550505050506001816105079190611caa565b90506103cb565b5061051a816002610a85565b335f908152600260205260409020819055905061053681610ac6565b506105418133610ad5565b50505050505050565b335f90815260016020526040902054156105a65760405162461bcd60e51b815260206004820152601860248201527f4e6f206e65656420746f2063726561746520612067616d6500000000000000006044820152606401610341565b5f6105ba6105b2610ae7565b610fff610af2565b90506105c461192f565b5f5b60048160ff1610156106a6575f6105f861040a5f8460ff16116105e9578561099d565b61040586610400600387611c73565b90505f5b600860ff82161015610691575f6106138383610b14565b9050610637858360ff166008811061062d5761062d611c96565b6020020151151590565b6106415780610664565b610664858360ff166008811061065957610659611c96565b602002015182610a41565b858360ff166008811061067957610679611c96565b60200201525061068a600182611caa565b90506105fc565b5061069f9050600182611caa565b90506105c6565b505f5b600860ff821610156106ea576106d7828260ff16600881106106cd576106cd611c96565b6020020151610ac6565b506106e3600182611caa565b90506106a9565b506106f482610ac6565b506040805180820182528381526020808201848152335f9081526001928390529390932082518155925191929161072f91830190600861194e565b5050335f90815260036020526040812055505050565b61074f8382610b35565b5f838152602081905260409020546001600160a01b03168215610821576001600160a01b0381165f90815260036020526040812054600811156107b4576001600160a01b0382165f908152600360205260409020546107af906008611cc3565b6107b6565b5f5b90505f60026107c6836001611c60565b6107d09084611cd6565b6107da9190611ced565b6107e5906064611cd6565b90506107f2816064611c60565b6001600160a01b0384165f9081526004602052604081208054909190610819908490611c60565b909155505050505b6001600160a01b0381165f90815260046020526040902054610844908290610b9c565b6001600160a01b0381165f9081526001602081905260408220828155919061086e90830182611988565b505050505050565b5f6108b68484848080601f0160208091040260200160405190810160405280939291908181526020018383808284375f9201919091525061095792505050565b335f90815260016020526040812054919250906108d4908390610e79565b90506108df81610ac6565b506040805160018082528183019092525f916020808301908036833701905050905081815f8151811061091457610914611c96565b60209081029190910101525f610931826364f758d360e11b610e99565b5f90815260208190526040902080546001600160a01b0319163317905550505050505050565b5f61096483836003610ea5565b90505b92915050565b5f6109678260ff166002610f9f565b5f8261098e5761098b5f611036565b92505b6109648360ff84166001611046565b5f610967826002611103565b5f826109bb576109b85f61096d565b92505b6109648360ff84166001611152565b5f610967826109d9575f6109dc565b60015b60ff165f610f9f565b5f826109f7576109f45f61096d565b92505b81610a0857610a055f61096d565b91505b61096483835f6111c9565b5f82610a2557610a225f6109ca565b92505b81610a3657610a335f6109ca565b91505b61096483835f611152565b5f82610a5357610a505f6109ca565b92505b81610a6457610a615f6109ca565b91505b61096483835f611240565b5f610a7b8484846112b7565b90505b9392505050565b5f82610a9757610a945f61096d565b92505b6109648360ff8416600161134d565b5f82610ab857610ab55f61096d565b92505b81610a6457610a615f61096d565b5f610ad182306113c4565b5090565b5f610ae083836113c4565b5090919050565b5f6102e56003611431565b5f82610b0457610b015f611036565b92505b6109648361ffff84166001611152565b5f82610b2657610b235f61096d565b92505b6109648360ff841660016111c9565b5f610b3f836114be565b90505f610b4c828461158f565b905080610b6c5760405163cf6c44e960e01b815260040160405180910390fd5b60405184907f1af0453083661051f6e56e5c070792320652e612154bf9af8637bb1e7655b99d905f90a250505050565b5f6005610bab6001600a611cc3565b600a8110610bbb57610bbb611c96565b01546001600160a01b03165f81815260046020526040902054909150808311801590610bf95750836001600160a01b0316826001600160a01b031614155b15610c045750505050565b5f5b600a811015610d3057846001600160a01b0316600582600a8110610c2c57610c2c611c96565b01546001600160a01b031603610d2857805b5f81118015610c8657508460045f6005610c59600186611cc3565b600a8110610c6957610c69611c96565b01546001600160a01b0316815260208101919091526040015f2054105b15610ced576005610c98600183611cc3565b600a8110610ca857610ca8611c96565b01546001600160a01b0316600582600a8110610cc657610cc6611c96565b0180546001600160a01b0319166001600160a01b03929092169190911790555f1901610c3e565b85600582600a8110610d0157610d01611c96565b0180546001600160a01b0319166001600160a01b0392909216919091179055505050505050565b600101610c06565b50836005610d406001600a611cc3565b600a8110610d5057610d50611c96565b0180546001600160a01b0319166001600160a01b03929092169190911790555f610d7c6001600a611cc3565b90505b8015610e72575f610d91600183611cc3565b90508460045f600584600a8110610daa57610daa611c96565b01546001600160a01b0316815260208101919091526040015f205410610dd05750610e72565b600581600a8110610de357610de3611c96565b01546001600160a01b0316600583600a8110610e0157610e01611c96565b01546001600160a01b0316600584600a8110610e1f57610e1f611c96565b015f600585600a8110610e3457610e34611c96565b0180546001600160a01b039485166001600160a01b031990911617905581549383166101009190910a908102920219909216179055505f1901610d7f565b5050505050565b5f82610e8b57610e885f611036565b92505b81610a0857610a055f611036565b5f61096483835f611697565b5f80516020611f488339815191525460405163196d0b9b60e01b81525f915f80516020611f28833981519152916001600160a01b039091169063196d0b9b90610ef8908890339089908990600401611d83565b6020604051808303815f875af1158015610f14573d5f803e3d5ffd5b505050506040513d601f19601f82011682018060405250810190610f389190611db9565b8154604051630f8e573b60e21b8152600481018390523360248201529193506001600160a01b031690633e395cec906044015f604051808303815f87803b158015610f81575f80fd5b505af1158015610f93573d5f803e3d5ffd5b50505050509392505050565b5f80516020611f4883398151915254604051639cd07acb60e01b81525f915f80516020611f28833981519152916001600160a01b0390911690639cd07acb90610fee9087908790600401611dd0565b6020604051808303815f875af115801561100a573d5f803e3d5ffd5b505050506040513d601f19601f8201168201806040525081019061102e9190611db9565b949350505050565b5f6109678261ffff166003610f9f565b5f8082156110595750600160f81b61105c565b505f5b5f80516020611f48833981519152546040516348fcc7ff60e11b815260048101879052602481018690526001600160f81b0319831660448201525f80516020611f28833981519152916001600160a01b0316906391f98ffe906064015b6020604051808303815f875af11580156110d5573d5f803e3d5ffd5b505050506040513d601f19601f820116820180604052508101906110f99190611db9565b9695505050505050565b5f80516020611f48833981519152546040516307227b9160e21b81525f915f80516020611f28833981519152916001600160a01b0390911690631c89ee4490610fee9087908790600401611dd0565b5f8082156111655750600160f81b611168565b505f5b5f80516020611f488339815191525460405163d99882d560e01b815260048101879052602481018690526001600160f81b0319831660448201525f80516020611f28833981519152916001600160a01b03169063d99882d5906064016110b9565b5f8082156111dc5750600160f81b6111df565b505f5b5f80516020611f488339815191525460405163f77f3f1d60e01b815260048101879052602481018690526001600160f81b0319831660448201525f80516020611f28833981519152916001600160a01b03169063f77f3f1d906064016110b9565b5f8082156112535750600160f81b611256565b505f5b5f80516020611f48833981519152546040516363a2db2960e01b815260048101879052602481018690526001600160f81b0319831660448201525f80516020611f28833981519152916001600160a01b0316906363a2db29906064016110b9565b5f805f80516020611f288339815191526001810154604051637702dcff60e01b81526004810188905260248101879052604481018690529192506001600160a01b031690637702dcff906064016020604051808303815f875af1158015611320573d5f803e3d5ffd5b505050506040513d601f19601f820116820180604052508101906113449190611db9565b95945050505050565b5f8082156113605750600160f81b611363565b505f5b5f80516020611f4883398151915254604051636010994f60e11b815260048101879052602481018690526001600160f81b0319831660448201525f80516020611f28833981519152916001600160a01b03169063c021329e906064016110b9565b5f5f80516020611f288339815191528054604051635ca4b5b160e11b8152600481018690526001600160a01b03858116602483015292935091169063b9496b62906044015f604051808303815f87803b15801561141f575f80fd5b505af1158015610541573d5f803e3d5ffd5b5f80516020611f4883398151915254604051636baeb74560e11b81525f915f80516020611f28833981519152916001600160a01b039091169063d75d6e8a9061147e908690600401611de4565b6020604051808303815f875af115801561149a573d5f803e3d5ffd5b505050506040513d601f19601f82011682018060405250810190610a7e9190611db9565b5f8181527f5ea69329017273582817d320489fbd94f775580e90c092699ca6f3d12fdf7d0260205260408120546060917f5ea69329017273582817d320489fbd94f775580e90c092699ca6f3d12fdf7d0091900361152f5760405163d66ca67560e01b815260040160405180910390fd5b5f8381526002820160209081526040918290208054835181840281018401909452808452909183018282801561158257602002820191905f5260205f20905b81548152602001906001019080831161156e575b5050505050915050919050565b5f60248161159c856117d0565b90505f8167ffffffffffffffff8111156115b8576115b8611adf565b6040519080825280601f01601f1916602001820160405280156115e2576020820181803683370190505b509050818360208301377fed8d60e34876f751cc8b014c560745351147d9de11b9347c854e881b128ea60254604051632c027b1360e21b81525f80516020611f28833981519152916001600160a01b03169063b009ec4c9061164c908a9086908b90600401611e2c565b6020604051808303815f875af1158015611668573d5f803e3d5ffd5b505050506040513d601f19601f8201168201806040525081019061168c9190611eb1565b979650505050505050565b7f5ea69329017273582817d320489fbd94f775580e90c092699ca6f3d12fdf7d01545f80516020611f288339815191528054604051637d6e912360e11b81527f5ea69329017273582817d320489fbd94f775580e90c092699ca6f3d12fdf7d0092916001600160a01b03169063fadd224690611717908990600401611ecc565b5f604051808303815f87803b15801561172e575f80fd5b505af1158015611740573d5f803e3d5ffd5b50508354604051633263b83b60e01b81526001600160a01b039091169250633263b83b915086906117799087908b908b90600401611ede565b5f604051808303818588803b158015611790575f80fd5b505af11580156117a2573d5f803e3d5ffd5b50505050506117b1838761187d565b600182018054905f6117c283611f0f565b919050555050509392505050565b80515f9081805b82811015611871575f8582815181106117f2576117f2611c96565b6020026020010151601e6020811061180c5761180c611c96565b1a605381111561181e5761181e611d4f565b9050600981605381111561183457611834611d4f565b60ff16101561184f57611848602084611c60565b9250611868565b60405163ce54a8d160e01b815260040160405180910390fd5b506001016117d7565b5061102e602082611c60565b5f8281527f5ea69329017273582817d320489fbd94f775580e90c092699ca6f3d12fdf7d0260205260409020547f5ea69329017273582817d320489fbd94f775580e90c092699ca6f3d12fdf7d0090156118ea57604051633f06d22b60e01b815260040160405180910390fd5b5f8381526002820160209081526040909120835161190a9285019061199a565b50505050565b604051806101400160405280600a906020820280368337509192915050565b6040518061010001604052806008906020820280368337509192915050565b826008810192821561197c579160200282015b8281111561197c578251825591602001919060010190611961565b50610ad19291506119d2565b506119979060088101906119d2565b50565b828054828255905f5260205f2090810192821561197c579160200282018281111561197c578251825591602001919060010190611961565b5b80821115610ad1575f81556001016119d3565b5f602082840312156119f6575f80fd5b81356001600160a01b0381168114610a7e575f80fd5b5f60208284031215611a1c575f80fd5b5035919050565b610140810181835f5b600a811015611a545781516001600160a01b0316835260209283019290910190600101611a2c565b50505092915050565b5f805f60408486031215611a6f575f80fd5b83359250602084013567ffffffffffffffff80821115611a8d575f80fd5b818601915086601f830112611aa0575f80fd5b813581811115611aae575f80fd5b876020828501011115611abf575f80fd5b6020830194508093505050509250925092565b8015158114611997575f80fd5b634e487b7160e01b5f52604160045260245ffd5b604051601f8201601f1916810167ffffffffffffffff81118282101715611b1c57611b1c611adf565b604052919050565b5f805f60608486031215611b36575f80fd5b83359250602080850135611b4981611ad2565b925060408581013567ffffffffffffffff80821115611b66575f80fd5b818801915088601f830112611b79575f80fd5b813581811115611b8b57611b8b611adf565b8060051b611b9a868201611af3565b918252838101860191868101908c841115611bb3575f80fd5b87860192505b83831015611c3a57823585811115611bcf575f80fd5b8601603f81018e13611bdf575f80fd5b8881013586811115611bf357611bf3611adf565b611c05601f8201601f19168b01611af3565b8181528f8a838501011115611c18575f80fd5b818a84018c8301375f9181018b01919091528352509187019190870190611bb9565b80985050505050505050509250925092565b634e487b7160e01b5f52601160045260245ffd5b8082018082111561096757610967611c4c565b60ff8181168382160290811690818114611c8f57611c8f611c4c565b5092915050565b634e487b7160e01b5f52603260045260245ffd5b60ff818116838216019081111561096757610967611c4c565b8181038181111561096757610967611c4c565b808202811582820484141761096757610967611c4c565b5f82611d0757634e487b7160e01b5f52601260045260245ffd5b500490565b5f81518084525f5b81811015611d3057602081850181015186830182015201611d14565b505f602082860101526020601f19601f83011685010191505092915050565b634e487b7160e01b5f52602160045260245ffd5b60548110611d7f57634e487b7160e01b5f52602160045260245ffd5b9052565b8481526001600160a01b0384166020820152608060408201525f611daa6080830185611d0c565b90506113446060830184611d63565b5f60208284031215611dc9575f80fd5b5051919050565b82815260408101610a7e6020830184611d63565b602081016109678284611d63565b5f815180845260208085019450602084015f5b83811015611e2157815187529582019590820190600101611e05565b509495945050505050565b606081525f611e3e6060830186611df2565b602083820381850152611e518287611d0c565b915083820360408501528185518084528284019150828160051b8501018388015f5b83811015611ea157601f19878403018552611e8f838351611d0c565b94860194925090850190600101611e73565b50909a9950505050505050505050565b5f60208284031215611ec1575f80fd5b8151610a7e81611ad2565b602081525f6109646020830184611df2565b838152606060208201525f611ef66060830185611df2565b905063ffffffff60e01b83166040830152949350505050565b5f60018201611f2057611f20611c4c565b506001019056feed8d60e34876f751cc8b014c560745351147d9de11b9347c854e881b128ea600ed8d60e34876f751cc8b014c560745351147d9de11b9347c854e881b128ea601a164736f6c6343000818000a",
  "linkReferences": {},
  "deployedLinkReferences": {}
}